{"address":"0xdebF5CdEE7a6885eFE1b87654Fca043e1987d73B","bytecode":"0x608060405234801561001057600080fd5b5061001a33610023565b60018055610073565b600080546001600160a01b038381166001600160a01b0319831681178455604051919092169283917f8be0079c531659141344cd1fd0a4f28419497f9722a3daafe3b4186f6b6457e09190a35050565b611009806100826000396000f3fe608060405234801561001057600080fd5b50600436106100885760003560e01c806392cf05571161005b57806392cf055714610102578063b52d66241461010a578063c5b420061461012a578063f2fde38b1461013d57600080fd5b80632bfda3131461008d57806334895643146100bc578063715018a6146100dd5780638da5cb5b146100e7575b600080fd5b6100a061009b3660046109a2565b610150565b6040516100b39796959493929190610a01565b60405180910390f35b6100cf6100ca366004610af6565b61034d565b6040519081526020016100b3565b6100e5610588565b005b6000546040516001600160a01b0390911681526020016100b3565b6002546100cf565b61011d610118366004610ba6565b61059c565b6040516100b39190610bd6565b6100e56101383660046109a2565b610608565b6100e561014b366004610ba6565b61076c565b6000606060008060006060600080600360008a8152602001908152602001600020905080600301546000036101a05760405162461bcd60e51b815260040161019790610c1a565b60405180910390fd5b80546002820154600383015460048401546006850154600186018054604080516020808402820181019092528281526001600160a01b03909816979296959460ff169360058a01939092909188919060009084015b828210156102a157838290600052602060002001805461021490610c5b565b80601f016020809104026020016040519081016040528092919081815260200182805461024090610c5b565b801561028d5780601f106102625761010080835404028352916020019161028d565b820191906000526020600020905b81548152906001019060200180831161027057829003601f168201915b5050505050815260200190600101906101f5565b5050505095508180546102b390610c5b565b80601f01602080910402602001604051908101604052809291908181526020018280546102df90610c5b565b801561032c5780601f106103015761010080835404028352916020019161032c565b820191906000526020600020905b81548152906001019060200180831161030f57829003601f168201915b50505050509150975097509750975097509750975050919395979092949650565b60006103576107e2565b856103a45760405162461bcd60e51b815260206004820152601e60248201527f46696c6552656769737472793a206e6f20434944732070726f766964656400006044820152606401610197565b826103f15760405162461bcd60e51b815260206004820152601c60248201527f46696c6552656769737472793a20656d7074792066696c656e616d65000000006044820152606401610197565b6002805490600061040183610c95565b909155506040805160e0810190915233815290915060208101610424888a610d03565b815260200186815260200142815260200160001515815260200185858080601f016020809104026020016040519081016040528093929190818152602001838380828437600092018290525093855250505060209182018590528381526003825260409020825181546001600160a01b0319166001600160a01b0390911617815582820151805191926104bf926001850192909101906108e5565b506040820151600282015560608201516003820155608082015160048201805460ff191691151591909117905560a082015160058201906105009082610e29565b5060c09190910151600690910155336000818152600460209081526040808320805460018101825590845291909220018390555182907ffe968332806f83c3466ad593b76d64e0bed7de929ca7653ae733a89765cb69639061056d908b908b908b908b908b904290610f12565b60405180910390a361057e60018055565b9695505050505050565b61059061083b565b61059a6000610895565b565b6001600160a01b0381166000908152600460209081526040918290208054835181840281018401909452808452606093928301828280156105fc57602002820191906000526020600020905b8154815260200190600101908083116105e8575b50505050509050919050565b6106106107e2565b60008181526003602081905260408220908101549091036106435760405162461bcd60e51b815260040161019790610c1a565b80546001600160a01b031633148061066557506000546001600160a01b031633145b6106b15760405162461bcd60e51b815260206004820152601c60248201527f46696c6552656769737472793a206e6f7420617574686f7269736564000000006044820152606401610197565b600481015460ff16156107065760405162461bcd60e51b815260206004820152601d60248201527f46696c6552656769737472793a20616c72656164792064656c657465640000006044820152606401610197565b60048101805460ff1916600117905580546040516001600160a01b039091169083907f0b20b58999477c252d574a65ba51ad6c09e90398718186b54594cb91eb853a46906107579042815260200190565b60405180910390a35061076960018055565b50565b61077461083b565b6001600160a01b0381166107d95760405162461bcd60e51b815260206004820152602660248201527f4f776e61626c653a206e6577206f776e657220697320746865207a65726f206160448201526564647265737360d01b6064820152608401610197565b61076981610895565b6002600154036108345760405162461bcd60e51b815260206004820152601f60248201527f5265656e7472616e637947756172643a207265656e7472616e742063616c6c006044820152606401610197565b6002600155565b6000546001600160a01b0316331461059a5760405162461bcd60e51b815260206004820181905260248201527f4f776e61626c653a2063616c6c6572206973206e6f7420746865206f776e65726044820152606401610197565b600080546001600160a01b038381166001600160a01b0319831681178455604051919092169283917f8be0079c531659141344cd1fd0a4f28419497f9722a3daafe3b4186f6b6457e09190a35050565b82805482825590600052602060002090810192821561092b579160200282015b8281111561092b578251829061091b9082610e29565b5091602001919060010190610905565b5061093792915061093b565b5090565b8082111561093757600061094f8282610958565b5060010161093b565b50805461096490610c5b565b6000825580601f10610974575050565b601f01602090049060005260206000209081019061076991905b80821115610937576000815560010161098e565b6000602082840312156109b457600080fd5b5035919050565b6000815180845260005b818110156109e1576020818501810151868301820152016109c5565b506000602082860101526020601f19601f83011685010191505092915050565b6001600160a01b038816815260e060208083018290528851918301829052600091610100600582901b850181019291908501908b8301855b82811015610a675760ff19888703018452610a558683516109bb565b95509284019290840190600101610a39565b5050505050876040840152866060840152610a86608084018715159052565b82810360a0840152610a9881866109bb565b9150508260c083015298975050505050505050565b60008083601f840112610abf57600080fd5b50813567ffffffffffffffff811115610ad757600080fd5b602083019150836020828501011115610aef57600080fd5b9250929050565b60008060008060008060808789031215610b0f57600080fd5b863567ffffffffffffffff80821115610b2757600080fd5b818901915089601f830112610b3b57600080fd5b813581811115610b4a57600080fd5b8a60208260051b8501011115610b5f57600080fd5b60209283019850965090880135945060408801359080821115610b8157600080fd5b50610b8e89828a01610aad565b979a9699509497949695606090950135949350505050565b600060208284031215610bb857600080fd5b81356001600160a01b0381168114610bcf57600080fd5b9392505050565b6020808252825182820181905260009190848201906040850190845b81811015610c0e57835183529284019291840191600101610bf2565b50909695505050505050565b60208082526021908201527f46696c6552656769737472793a2066696c6520646f6573206e6f7420657869736040820152601d60fa1b606082015260800190565b600181811c90821680610c6f57607f821691505b602082108103610c8f57634e487b7160e01b600052602260045260246000fd5b50919050565b600060018201610cb557634e487b7160e01b600052601160045260246000fd5b5060010190565b634e487b7160e01b600052604160045260246000fd5b604051601f8201601f1916810167ffffffffffffffff81118282101715610cfb57610cfb610cbc565b604052919050565b600067ffffffffffffffff80841115610d1e57610d1e610cbc565b8360051b6020610d2f818301610cd2565b868152918501918181019036841115610d4757600080fd5b865b84811015610dcc57803586811115610d615760008081fd5b8801601f3681830112610d745760008081fd5b813588811115610d8657610d86610cbc565b610d97818301601f19168801610cd2565b91508082523687828501011115610dae5760008081fd5b80878401888401376000908201870152845250918301918301610d49565b50979650505050505050565b601f821115610e24576000816000526020600020601f850160051c81016020861015610e015750805b601f850160051c820191505b81811015610e2057828155600101610e0d565b5050505b505050565b815167ffffffffffffffff811115610e4357610e43610cbc565b610e5781610e518454610c5b565b84610dd8565b602080601f831160018114610e8c5760008415610e745750858301515b600019600386901b1c1916600185901b178555610e20565b600085815260208120601f198616915b82811015610ebb57888601518255948401946001909101908401610e9c565b5085821015610ed95787850151600019600388901b60f8161c191681555b5050505050600190811b01905550565b81835281816020850137506000828201602090810191909152601f909101601f19169091010190565b60808082528101869052600060a0600588901b8301810190830189835b8a811015610fa357858403609f190183528135368d9003601e19018112610f5557600080fd5b8c01602081810191359067ffffffffffffffff821115610f7457600080fd5b813603831315610f8357600080fd5b610f8e878385610ee9565b96509485019493909301925050600101610f2f565b5050508660208401528281036040840152610fbf818688610ee9565b91505082606083015297965050505050505056fea2646970667358221220cf8e881e3bd3cd975e258f13c354079e7aa7fd249668307bbc65ce47d8f0b4e564736f6c63430008170033","abi":[{"anonymous":false,"inputs":[{"indexed":true,"internalType":"uint256","name":"fileId","type":"uint256"},{"indexed":true,"internalType":"address","name":"owner","type":"address"},{"indexed":false,"internalType":"uint256","name":"timestamp","type":"uint256"}],"name":"FileDeleted","type":"event"},{"anonymous":false,"inputs":[{"indexed":true,"internalType":"uint256","name":"fileId","type":"uint256"},{"indexed":true,"internalType":"address","name":"owner","type":"address"},{"indexed":false,"internalType":"string[]","name":"cids","type":"string[]"},{"indexed":false,"internalType":"bytes32","name":"fileHash","type":"bytes32"},{"indexed":false,"internalType":"string","name":"fileName","type":"string"},{"indexed":false,"internalType":"uint256","name":"timestamp","type":"uint256"}],"name":"FileUploaded","type":"event"},{"anonymous":false,"inputs":[{"indexed":true,"internalType":"address","name":"previousOwner","type":"address"},{"indexed":true,"internalType":"address","name":"newOwner","type":"address"}],"name":"OwnershipTransferred","type":"event"},{"inputs":[{"internalType":"uint256","name":"fileId","type":"uint256"}],"name":"deleteFile","outputs":[],"stateMutability":"nonpayable","type":"function"},{"inputs":[{"internalType":"uint256","name":"fileId","type":"uint256"}],"name":"getFile","outputs":[{"internalType":"address","name":"owner","type":"address"},{"internalType":"string[]","name":"cids","type":"string[]"},{"internalType":"bytes32","name":"fileHash","type":"bytes32"},{"internalType":"uint256","name":"timestamp","type":"uint256"},{"internalType":"bool","name":"isDeleted","type":"bool"},{"internalType":"string","name":"fileName","type":"string"},{"internalType":"uint256","name":"fileSize","type":"uint256"}],"stateMutability":"view","type":"function"},{"inputs":[{"internalType":"address","name":"user","type":"address"}],"name":"getOwnerFiles","outputs":[{"internalType":"uint256[]","name":"","type":"uint256[]"}],"stateMutability":"view","type":"function"},{"inputs":[],"name":"owner","outputs":[{"internalType":"address","name":"","type":"address"}],"stateMutability":"view","type":"function"},{"inputs":[],"name":"renounceOwnership","outputs":[],"stateMutability":"nonpayable","type":"function"},{"inputs":[],"name":"totalFiles","outputs":[{"internalType":"uint256","name":"","type":"uint256"}],"stateMutability":"view","type":"function"},{"inputs":[{"internalType":"address","name":"newOwner","type":"address"}],"name":"transferOwnership","outputs":[],"stateMutability":"nonpayable","type":"function"},{"inputs":[{"internalType":"string[]","name":"cids","type":"string[]"},{"internalType":"bytes32","name":"fileHash","type":"bytes32"},{"internalType":"string","name":"fileName","type":"string"},{"internalType":"uint256","name":"fileSize","type":"uint256"}],"name":"uploadFile","outputs":[{"internalType":"uint256","name":"fileId","type":"uint256"}],"stateMutability":"nonpayable","type":"function"}]}